{
  "_format": "hh-sol-artifact-1",
  "contractName": "VotingToken",
  "sourceName": "contracts/VotingToken.sol",
  "abi": [
    {
      "inputs": [
        {
          "internalType": "address[]",
          "name": "_voters_addresses",
          "type": "address[]"
        },
        {
          "internalType": "address[]",
          "name": "_candidates_addresses",
          "type": "address[]"
        },
        {
          "internalType": "uint256",
          "name": "_durationInMinutes",
          "type": "uint256"
        }
      ],
      "stateMutability": "nonpayable",
      "type": "constructor"
    },
    {
      "inputs": [
        {
          "internalType": "address",
          "name": "spender",
          "type": "address"
        },
        {
          "internalType": "uint256",
          "name": "allowance",
          "type": "uint256"
        },
        {
          "internalType": "uint256",
          "name": "needed",
          "type": "uint256"
        }
      ],
      "name": "ERC20InsufficientAllowance",
      "type": "error"
    },
    {
      "inputs": [
        {
          "internalType": "address",
          "name": "sender",
          "type": "address"
        },
        {
          "internalType": "uint256",
          "name": "balance",
          "type": "uint256"
        },
        {
          "internalType": "uint256",
          "name": "needed",
          "type": "uint256"
        }
      ],
      "name": "ERC20InsufficientBalance",
      "type": "error"
    },
    {
      "inputs": [
        {
          "internalType": "address",
          "name": "approver",
          "type": "address"
        }
      ],
      "name": "ERC20InvalidApprover",
      "type": "error"
    },
    {
      "inputs": [
        {
          "internalType": "address",
          "name": "receiver",
          "type": "address"
        }
      ],
      "name": "ERC20InvalidReceiver",
      "type": "error"
    },
    {
      "inputs": [
        {
          "internalType": "address",
          "name": "sender",
          "type": "address"
        }
      ],
      "name": "ERC20InvalidSender",
      "type": "error"
    },
    {
      "inputs": [
        {
          "internalType": "address",
          "name": "spender",
          "type": "address"
        }
      ],
      "name": "ERC20InvalidSpender",
      "type": "error"
    },
    {
      "anonymous": false,
      "inputs": [
        {
          "indexed": true,
          "internalType": "address",
          "name": "owner",
          "type": "address"
        },
        {
          "indexed": true,
          "internalType": "address",
          "name": "spender",
          "type": "address"
        },
        {
          "indexed": false,
          "internalType": "uint256",
          "name": "value",
          "type": "uint256"
        }
      ],
      "name": "Approval",
      "type": "event"
    },
    {
      "anonymous": false,
      "inputs": [
        {
          "indexed": true,
          "internalType": "address",
          "name": "from",
          "type": "address"
        },
        {
          "indexed": true,
          "internalType": "address",
          "name": "to",
          "type": "address"
        },
        {
          "indexed": false,
          "internalType": "uint256",
          "name": "value",
          "type": "uint256"
        }
      ],
      "name": "Transfer",
      "type": "event"
    },
    {
      "inputs": [
        {
          "internalType": "address",
          "name": "owner",
          "type": "address"
        },
        {
          "internalType": "address",
          "name": "spender",
          "type": "address"
        }
      ],
      "name": "allowance",
      "outputs": [
        {
          "internalType": "uint256",
          "name": "",
          "type": "uint256"
        }
      ],
      "stateMutability": "view",
      "type": "function"
    },
    {
      "inputs": [
        {
          "internalType": "address",
          "name": "spender",
          "type": "address"
        },
        {
          "internalType": "uint256",
          "name": "value",
          "type": "uint256"
        }
      ],
      "name": "approve",
      "outputs": [
        {
          "internalType": "bool",
          "name": "",
          "type": "bool"
        }
      ],
      "stateMutability": "nonpayable",
      "type": "function"
    },
    {
      "inputs": [
        {
          "internalType": "address",
          "name": "account",
          "type": "address"
        }
      ],
      "name": "balanceOf",
      "outputs": [
        {
          "internalType": "uint256",
          "name": "",
          "type": "uint256"
        }
      ],
      "stateMutability": "view",
      "type": "function"
    },
    {
      "inputs": [],
      "name": "decimals",
      "outputs": [
        {
          "internalType": "uint8",
          "name": "",
          "type": "uint8"
        }
      ],
      "stateMutability": "view",
      "type": "function"
    },
    {
      "inputs": [],
      "name": "getCandidateAddresses",
      "outputs": [
        {
          "internalType": "address[]",
          "name": "",
          "type": "address[]"
        }
      ],
      "stateMutability": "view",
      "type": "function"
    },
    {
      "inputs": [],
      "name": "getRemainingTime",
      "outputs": [
        {
          "internalType": "uint256",
          "name": "",
          "type": "uint256"
        }
      ],
      "stateMutability": "view",
      "type": "function"
    },
    {
      "inputs": [],
      "name": "getVotingResults",
      "outputs": [
        {
          "internalType": "uint256[]",
          "name": "",
          "type": "uint256[]"
        }
      ],
      "stateMutability": "view",
      "type": "function"
    },
    {
      "inputs": [],
      "name": "getVotingStatus",
      "outputs": [
        {
          "internalType": "bool",
          "name": "",
          "type": "bool"
        }
      ],
      "stateMutability": "view",
      "type": "function"
    },
    {
      "inputs": [
        {
          "internalType": "uint256",
          "name": "to",
          "type": "uint256"
        }
      ],
      "name": "giveRightToVote",
      "outputs": [],
      "stateMutability": "nonpayable",
      "type": "function"
    },
    {
      "inputs": [
        {
          "internalType": "address",
          "name": "voter",
          "type": "address"
        }
      ],
      "name": "hasVoted",
      "outputs": [
        {
          "internalType": "bool",
          "name": "",
          "type": "bool"
        }
      ],
      "stateMutability": "view",
      "type": "function"
    },
    {
      "inputs": [],
      "name": "name",
      "outputs": [
        {
          "internalType": "string",
          "name": "",
          "type": "string"
        }
      ],
      "stateMutability": "view",
      "type": "function"
    },
    {
      "inputs": [],
      "name": "setVoteResults",
      "outputs": [],
      "stateMutability": "nonpayable",
      "type": "function"
    },
    {
      "inputs": [],
      "name": "symbol",
      "outputs": [
        {
          "internalType": "string",
          "name": "",
          "type": "string"
        }
      ],
      "stateMutability": "view",
      "type": "function"
    },
    {
      "inputs": [],
      "name": "totalSupply",
      "outputs": [
        {
          "internalType": "uint256",
          "name": "",
          "type": "uint256"
        }
      ],
      "stateMutability": "view",
      "type": "function"
    },
    {
      "inputs": [
        {
          "internalType": "address",
          "name": "to",
          "type": "address"
        },
        {
          "internalType": "uint256",
          "name": "value",
          "type": "uint256"
        }
      ],
      "name": "transfer",
      "outputs": [
        {
          "internalType": "bool",
          "name": "",
          "type": "bool"
        }
      ],
      "stateMutability": "nonpayable",
      "type": "function"
    },
    {
      "inputs": [
        {
          "internalType": "address",
          "name": "from",
          "type": "address"
        },
        {
          "internalType": "address",
          "name": "to",
          "type": "address"
        },
        {
          "internalType": "uint256",
          "name": "value",
          "type": "uint256"
        }
      ],
      "name": "transferFrom",
      "outputs": [
        {
          "internalType": "bool",
          "name": "",
          "type": "bool"
        }
      ],
      "stateMutability": "nonpayable",
      "type": "function"
    },
    {
      "inputs": [
        {
          "internalType": "uint256",
          "name": "index",
          "type": "uint256"
        }
      ],
      "name": "vote",
      "outputs": [
        {
          "internalType": "bool",
          "name": "",
          "type": "bool"
        }
      ],
      "stateMutability": "nonpayable",
      "type": "function"
    },
    {
      "inputs": [
        {
          "internalType": "address",
          "name": "",
          "type": "address"
        }
      ],
      "name": "voters",
      "outputs": [
        {
          "internalType": "bool",
          "name": "",
          "type": "bool"
        }
      ],
      "stateMutability": "view",
      "type": "function"
    },
    {
      "inputs": [],
      "name": "votingEnd",
      "outputs": [
        {
          "internalType": "uint256",
          "name": "",
          "type": "uint256"
        }
      ],
      "stateMutability": "view",
      "type": "function"
    },
    {
      "inputs": [
        {
          "internalType": "uint256",
          "name": "",
          "type": "uint256"
        }
      ],
      "name": "votingResults",
      "outputs": [
        {
          "internalType": "uint256",
          "name": "",
          "type": "uint256"
        }
      ],
      "stateMutability": "view",
      "type": "function"
    },
    {
      "inputs": [],
      "name": "votingStart",
      "outputs": [
        {
          "internalType": "uint256",
          "name": "",
          "type": "uint256"
        }
      ],
      "stateMutability": "view",
      "type": "function"
    }
  ],
  "bytecode": "0x60806040523480156200001157600080fd5b5060405162002cc638038062002cc68339818101604052810190620000379190620007ff565b6040518060400160405280600b81526020017f566f74696e67546f6b656e0000000000000000000000000000000000000000008152506040518060400160405280600381526020017f56544b00000000000000000000000000000000000000000000000000000000008152508160039081620000b4919062000ada565b508060049081620000c6919062000ada565b5050506200010933620000de6200021460201b60201c565b60ff16600a620000ef919062000d44565b6064620000fd919062000d95565b6200021960201b60201c565b33600560006101000a81548173ffffffffffffffffffffffffffffffffffffffff021916908373ffffffffffffffffffffffffffffffffffffffff16021790555042600a81905550603c8162000160919062000d95565b426200016d919062000de0565b600b8190555081600890805190602001906200018b929190620004d6565b50815167ffffffffffffffff811115620001aa57620001a962000600565b5b604051908082528060200260200182016040528015620001d95781602001602082028036833780820191505090505b5060099080519060200190620001f192919062000565565b5082600790805190602001906200020a929190620004d6565b5050505062000eb4565b600090565b600073ffffffffffffffffffffffffffffffffffffffff168273ffffffffffffffffffffffffffffffffffffffff16036200028e5760006040517fec442f0500000000000000000000000000000000000000000000000000000000815260040162000285919062000e2c565b60405180910390fd5b620002a260008383620002a660201b60201c565b5050565b600073ffffffffffffffffffffffffffffffffffffffff168373ffffffffffffffffffffffffffffffffffffffff1603620002fc578060026000828254620002ef919062000de0565b92505081905550620003d2565b60008060008573ffffffffffffffffffffffffffffffffffffffff1673ffffffffffffffffffffffffffffffffffffffff168152602001908152602001600020549050818110156200038b578381836040517fe450d38c000000000000000000000000000000000000000000000000000000008152600401620003829392919062000e5a565b60405180910390fd5b8181036000808673ffffffffffffffffffffffffffffffffffffffff1673ffffffffffffffffffffffffffffffffffffffff16815260200190815260200160002081905550505b600073ffffffffffffffffffffffffffffffffffffffff168273ffffffffffffffffffffffffffffffffffffffff16036200041d57806002600082825403925050819055506200046a565b806000808473ffffffffffffffffffffffffffffffffffffffff1673ffffffffffffffffffffffffffffffffffffffff168152602001908152602001600020600082825401925050819055505b8173ffffffffffffffffffffffffffffffffffffffff168373ffffffffffffffffffffffffffffffffffffffff167fddf252ad1be2c89b69c2b068fc378daa952ba7f163c4a11628f55a4df523b3ef83604051620004c9919062000e97565b60405180910390a3505050565b82805482825590600052602060002090810192821562000552579160200282015b82811115620005515782518260006101000a81548173ffffffffffffffffffffffffffffffffffffffff021916908373ffffffffffffffffffffffffffffffffffffffff16021790555091602001919060010190620004f7565b5b509050620005619190620005b7565b5090565b828054828255906000526020600020908101928215620005a4579160200282015b82811115620005a357825182559160200191906001019062000586565b5b509050620005b39190620005b7565b5090565b5b80821115620005d2576000816000905550600101620005b8565b5090565b6000604051905090565b600080fd5b600080fd5b600080fd5b6000601f19601f8301169050919050565b7f4e487b7100000000000000000000000000000000000000000000000000000000600052604160045260246000fd5b6200063a82620005ef565b810181811067ffffffffffffffff821117156200065c576200065b62000600565b5b80604052505050565b600062000671620005d6565b90506200067f82826200062f565b919050565b600067ffffffffffffffff821115620006a257620006a162000600565b5b602082029050602081019050919050565b600080fd5b600073ffffffffffffffffffffffffffffffffffffffff82169050919050565b6000620006e582620006b8565b9050919050565b620006f781620006d8565b81146200070357600080fd5b50565b6000815190506200071781620006ec565b92915050565b6000620007346200072e8462000684565b62000665565b905080838252602082019050602084028301858111156200075a5762000759620006b3565b5b835b8181101562000787578062000772888262000706565b8452602084019350506020810190506200075c565b5050509392505050565b600082601f830112620007a957620007a8620005ea565b5b8151620007bb8482602086016200071d565b91505092915050565b6000819050919050565b620007d981620007c4565b8114620007e557600080fd5b50565b600081519050620007f981620007ce565b92915050565b6000806000606084860312156200081b576200081a620005e0565b5b600084015167ffffffffffffffff8111156200083c576200083b620005e5565b5b6200084a8682870162000791565b935050602084015167ffffffffffffffff8111156200086e576200086d620005e5565b5b6200087c8682870162000791565b92505060406200088f86828701620007e8565b9150509250925092565b600081519050919050565b7f4e487b7100000000000000000000000000000000000000000000000000000000600052602260045260246000fd5b60006002820490506001821680620008ec57607f821691505b602082108103620009025762000901620008a4565b5b50919050565b60008190508160005260206000209050919050565b60006020601f8301049050919050565b600082821b905092915050565b6000600883026200096c7fffffffffffffffffffffffffffffffffffffffffffffffffffffffffffffffff826200092d565b6200097886836200092d565b95508019841693508086168417925050509392505050565b6000819050919050565b6000620009bb620009b5620009af84620007c4565b62000990565b620007c4565b9050919050565b6000819050919050565b620009d7836200099a565b620009ef620009e682620009c2565b8484546200093a565b825550505050565b600090565b62000a06620009f7565b62000a13818484620009cc565b505050565b5b8181101562000a3b5762000a2f600082620009fc565b60018101905062000a19565b5050565b601f82111562000a8a5762000a548162000908565b62000a5f846200091d565b8101602085101562000a6f578190505b62000a8762000a7e856200091d565b83018262000a18565b50505b505050565b600082821c905092915050565b600062000aaf6000198460080262000a8f565b1980831691505092915050565b600062000aca838362000a9c565b9150826002028217905092915050565b62000ae58262000899565b67ffffffffffffffff81111562000b015762000b0062000600565b5b62000b0d8254620008d3565b62000b1a82828562000a3f565b600060209050601f83116001811462000b52576000841562000b3d578287015190505b62000b49858262000abc565b86555062000bb9565b601f19841662000b628662000908565b60005b8281101562000b8c5784890151825560018201915060208501945060208101905062000b65565b8683101562000bac578489015162000ba8601f89168262000a9c565b8355505b6001600288020188555050505b505050505050565b7f4e487b7100000000000000000000000000000000000000000000000000000000600052601160045260246000fd5b60008160011c9050919050565b6000808291508390505b600185111562000c4f5780860481111562000c275762000c2662000bc1565b5b600185161562000c375780820291505b808102905062000c478562000bf0565b945062000c07565b94509492505050565b60008262000c6a576001905062000d3d565b8162000c7a576000905062000d3d565b816001811462000c93576002811462000c9e5762000cd4565b600191505062000d3d565b60ff84111562000cb35762000cb262000bc1565b5b8360020a91508482111562000ccd5762000ccc62000bc1565b5b5062000d3d565b5060208310610133831016604e8410600b841016171562000d0e5782820a90508381111562000d085762000d0762000bc1565b5b62000d3d565b62000d1d848484600162000bfd565b9250905081840481111562000d375762000d3662000bc1565b5b81810290505b9392505050565b600062000d5182620007c4565b915062000d5e83620007c4565b925062000d8d7fffffffffffffffffffffffffffffffffffffffffffffffffffffffffffffffff848462000c58565b905092915050565b600062000da282620007c4565b915062000daf83620007c4565b925082820262000dbf81620007c4565b9150828204841483151762000dd95762000dd862000bc1565b5b5092915050565b600062000ded82620007c4565b915062000dfa83620007c4565b925082820190508082111562000e155762000e1462000bc1565b5b92915050565b62000e2681620006d8565b82525050565b600060208201905062000e43600083018462000e1b565b92915050565b62000e5481620007c4565b82525050565b600060608201905062000e71600083018662000e1b565b62000e80602083018562000e49565b62000e8f604083018462000e49565b949350505050565b600060208201905062000eae600083018462000e49565b92915050565b611e028062000ec46000396000f3fe608060405234801561001057600080fd5b50600436106101375760003560e01c80638155f736116100b8578063a9059cbb1161007c578063a9059cbb1461037c578063bc23bd51146103ac578063c58e9d53146103c8578063da650ec6146103d2578063dd62ed3e146103f0578063efb98bcf1461042057610137565b80638155f736146102c257806385a38635146102e057806395d89b41146102fe5780639a4f73001461031c578063a3ec138d1461034c57610137565b806318160ddd116100ff57806318160ddd1461020857806323b872dd14610226578063313ce56714610256578063581c281c1461027457806370a082311461029257610137565b80630121b93f1461013c57806306fdde031461016c578063095ea7b31461018a57806309eef43e146101ba578063101158af146101ea575b600080fd5b610156600480360381019061015191906113b9565b61043e565b6040516101639190611401565b60405180910390f35b6101746105c1565b60405161018191906114ac565b60405180910390f35b6101a4600480360381019061019f919061152c565b610653565b6040516101b19190611401565b60405180910390f35b6101d460048036038101906101cf919061156c565b610676565b6040516101e19190611401565b60405180910390f35b6101f26106cc565b6040516101ff91906115a8565b60405180910390f35b6102106106d2565b60405161021d91906115a8565b60405180910390f35b610240600480360381019061023b91906115c3565b6106dc565b60405161024d9190611401565b60405180910390f35b61025e61070b565b60405161026b9190611632565b60405180910390f35b61027c610710565b6040516102899190611401565b60405180910390f35b6102ac60048036038101906102a7919061156c565b61072a565b6040516102b991906115a8565b60405180910390f35b6102ca610772565b6040516102d7919061170b565b60405180910390f35b6102e8610800565b6040516102f591906115a8565b60405180910390f35b610306610806565b60405161031391906114ac565b60405180910390f35b610336600480360381019061033191906113b9565b610898565b60405161034391906115a8565b60405180910390f35b6103666004803603810190610361919061156c565b6108bc565b6040516103739190611401565b60405180910390f35b6103966004803603810190610391919061152c565b6108dc565b6040516103a39190611401565b60405180910390f35b6103c660048036038101906103c191906113b9565b6108ff565b005b6103d0610c0b565b005b6103da610c94565b6040516103e791906117eb565b60405180910390f35b61040a6004803603810190610405919061180d565b610cec565b60405161041791906115a8565b60405180910390f35b610428610d73565b60405161043591906115a8565b60405180910390f35b6000600660003373ffffffffffffffffffffffffffffffffffffffff1673ffffffffffffffffffffffffffffffffffffffff16815260200190815260200160002060009054906101000a900460ff16156104cd576040517f08c379a00000000000000000000000000000000000000000000000000000000081526004016104c490611899565b60405180910390fd5b6001600660003373ffffffffffffffffffffffffffffffffffffffff1673ffffffffffffffffffffffffffffffffffffffff16815260200190815260200160002060006101000a81548160ff02191690831515021790555060016105303361072a565b1015610571576040517f08c379a00000000000000000000000000000000000000000000000000000000081526004016105689061192b565b60405180910390fd5b6105ba600883815481106105885761058761194b565b5b9060005260206000200160009054906101000a900473ffffffffffffffffffffffffffffffffffffffff1660016108dc565b9050919050565b6060600380546105d0906119a9565b80601f01602080910402602001604051908101604052809291908181526020018280546105fc906119a9565b80156106495780601f1061061e57610100808354040283529160200191610649565b820191906000526020600020905b81548152906001019060200180831161062c57829003601f168201915b5050505050905090565b60008061065e610de0565b905061066b818585610de8565b600191505092915050565b6000600660008373ffffffffffffffffffffffffffffffffffffffff1673ffffffffffffffffffffffffffffffffffffffff16815260200190815260200160002060009054906101000a900460ff169050919050565b600a5481565b6000600254905090565b6000806106e7610de0565b90506106f4858285610dfa565b6106ff858585610e8e565b60019150509392505050565b600090565b6000600a5442101580156107255750600b5442105b905090565b60008060008373ffffffffffffffffffffffffffffffffffffffff1673ffffffffffffffffffffffffffffffffffffffff168152602001908152602001600020549050919050565b606060088054806020026020016040519081016040528092919081815260200182805480156107f657602002820191906000526020600020905b8160009054906101000a900473ffffffffffffffffffffffffffffffffffffffff1673ffffffffffffffffffffffffffffffffffffffff16815260200190600101908083116107ac575b5050505050905090565b600b5481565b606060048054610815906119a9565b80601f0160208091040260200160405190810160405280929190818152602001828054610841906119a9565b801561088e5780601f106108635761010080835404028352916020019161088e565b820191906000526020600020905b81548152906001019060200180831161087157829003601f168201915b5050505050905090565b600981815481106108a857600080fd5b906000526020600020016000915090505481565b60066020528060005260406000206000915054906101000a900460ff1681565b6000806108e7610de0565b90506108f4818585610e8e565b600191505092915050565b600560009054906101000a900473ffffffffffffffffffffffffffffffffffffffff1673ffffffffffffffffffffffffffffffffffffffff163373ffffffffffffffffffffffffffffffffffffffff161461098f576040517f08c379a000000000000000000000000000000000000000000000000000000000815260040161098690611a4c565b60405180910390fd5b60078054905081106109d6576040517f08c379a00000000000000000000000000000000000000000000000000000000081526004016109cd90611ab8565b60405180910390fd5b6000600782815481106109ec576109eb61194b565b5b9060005260206000200160009054906101000a900473ffffffffffffffffffffffffffffffffffffffff169050600560009054906101000a900473ffffffffffffffffffffffffffffffffffffffff1673ffffffffffffffffffffffffffffffffffffffff168173ffffffffffffffffffffffffffffffffffffffff1603610aa9576040517f08c379a0000000000000000000000000000000000000000000000000000000008152600401610aa090611b4a565b60405180910390fd5b600660008273ffffffffffffffffffffffffffffffffffffffff1673ffffffffffffffffffffffffffffffffffffffff16815260200190815260200160002060009054906101000a900460ff1615610b36576040517f08c379a0000000000000000000000000000000000000000000000000000000008152600401610b2d90611bb6565b60405180910390fd5b6000610b418261072a565b14610b81576040517f08c379a0000000000000000000000000000000000000000000000000000000008152600401610b7890611c48565b60405180910390fd5b610baf600560009054906101000a900473ffffffffffffffffffffffffffffffffffffffff16826001610e8e565b6000600660008373ffffffffffffffffffffffffffffffffffffffff1673ffffffffffffffffffffffffffffffffffffffff16815260200190815260200160002060006101000a81548160ff0219169083151502179055505050565b60005b600880549050811015610c9157610c6260088281548110610c3257610c3161194b565b5b9060005260206000200160009054906101000a900473ffffffffffffffffffffffffffffffffffffffff1661072a565b60098281548110610c7657610c7561194b565b5b90600052602060002001819055508080600101915050610c0e565b50565b60606009805480602002602001604051908101604052809291908181526020018280548015610ce257602002820191906000526020600020905b815481526020019060010190808311610cce575b5050505050905090565b6000600160008473ffffffffffffffffffffffffffffffffffffffff1673ffffffffffffffffffffffffffffffffffffffff16815260200190815260200160002060008373ffffffffffffffffffffffffffffffffffffffff1673ffffffffffffffffffffffffffffffffffffffff16815260200190815260200160002054905092915050565b6000600a54421015610dba576040517f08c379a0000000000000000000000000000000000000000000000000000000008152600401610db190611cb4565b60405180910390fd5b600b544210610dcc5760009050610ddd565b42600b54610dda9190611d03565b90505b90565b600033905090565b610df58383836001610f82565b505050565b6000610e068484610cec565b90507fffffffffffffffffffffffffffffffffffffffffffffffffffffffffffffffff8114610e885781811015610e78578281836040517ffb8f41b2000000000000000000000000000000000000000000000000000000008152600401610e6f93929190611d46565b60405180910390fd5b610e8784848484036000610f82565b5b50505050565b600073ffffffffffffffffffffffffffffffffffffffff168373ffffffffffffffffffffffffffffffffffffffff1603610f005760006040517f96c6fd1e000000000000000000000000000000000000000000000000000000008152600401610ef79190611d7d565b60405180910390fd5b600073ffffffffffffffffffffffffffffffffffffffff168273ffffffffffffffffffffffffffffffffffffffff1603610f725760006040517fec442f05000000000000000000000000000000000000000000000000000000008152600401610f699190611d7d565b60405180910390fd5b610f7d838383611159565b505050565b600073ffffffffffffffffffffffffffffffffffffffff168473ffffffffffffffffffffffffffffffffffffffff1603610ff45760006040517fe602df05000000000000000000000000000000000000000000000000000000008152600401610feb9190611d7d565b60405180910390fd5b600073ffffffffffffffffffffffffffffffffffffffff168373ffffffffffffffffffffffffffffffffffffffff16036110665760006040517f94280d6200000000000000000000000000000000000000000000000000000000815260040161105d9190611d7d565b60405180910390fd5b81600160008673ffffffffffffffffffffffffffffffffffffffff1673ffffffffffffffffffffffffffffffffffffffff16815260200190815260200160002060008573ffffffffffffffffffffffffffffffffffffffff1673ffffffffffffffffffffffffffffffffffffffff168152602001908152602001600020819055508015611153578273ffffffffffffffffffffffffffffffffffffffff168473ffffffffffffffffffffffffffffffffffffffff167f8c5be1e5ebec7d5bd14f71427d1e84f3dd0314c0f7b2291e5b200ac8c7c3b9258460405161114a91906115a8565b60405180910390a35b50505050565b600073ffffffffffffffffffffffffffffffffffffffff168373ffffffffffffffffffffffffffffffffffffffff16036111ab57806002600082825461119f9190611d98565b9250508190555061127e565b60008060008573ffffffffffffffffffffffffffffffffffffffff1673ffffffffffffffffffffffffffffffffffffffff16815260200190815260200160002054905081811015611237578381836040517fe450d38c00000000000000000000000000000000000000000000000000000000815260040161122e93929190611d46565b60405180910390fd5b8181036000808673ffffffffffffffffffffffffffffffffffffffff1673ffffffffffffffffffffffffffffffffffffffff16815260200190815260200160002081905550505b600073ffffffffffffffffffffffffffffffffffffffff168273ffffffffffffffffffffffffffffffffffffffff16036112c75780600260008282540392505081905550611314565b806000808473ffffffffffffffffffffffffffffffffffffffff1673ffffffffffffffffffffffffffffffffffffffff168152602001908152602001600020600082825401925050819055505b8173ffffffffffffffffffffffffffffffffffffffff168373ffffffffffffffffffffffffffffffffffffffff167fddf252ad1be2c89b69c2b068fc378daa952ba7f163c4a11628f55a4df523b3ef8360405161137191906115a8565b60405180910390a3505050565b600080fd5b6000819050919050565b61139681611383565b81146113a157600080fd5b50565b6000813590506113b38161138d565b92915050565b6000602082840312156113cf576113ce61137e565b5b60006113dd848285016113a4565b91505092915050565b60008115159050919050565b6113fb816113e6565b82525050565b600060208201905061141660008301846113f2565b92915050565b600081519050919050565b600082825260208201905092915050565b60005b8381101561145657808201518184015260208101905061143b565b60008484015250505050565b6000601f19601f8301169050919050565b600061147e8261141c565b6114888185611427565b9350611498818560208601611438565b6114a181611462565b840191505092915050565b600060208201905081810360008301526114c68184611473565b905092915050565b600073ffffffffffffffffffffffffffffffffffffffff82169050919050565b60006114f9826114ce565b9050919050565b611509816114ee565b811461151457600080fd5b50565b60008135905061152681611500565b92915050565b600080604083850312156115435761154261137e565b5b600061155185828601611517565b9250506020611562858286016113a4565b9150509250929050565b6000602082840312156115825761158161137e565b5b600061159084828501611517565b91505092915050565b6115a281611383565b82525050565b60006020820190506115bd6000830184611599565b92915050565b6000806000606084860312156115dc576115db61137e565b5b60006115ea86828701611517565b93505060206115fb86828701611517565b925050604061160c868287016113a4565b9150509250925092565b600060ff82169050919050565b61162c81611616565b82525050565b60006020820190506116476000830184611623565b92915050565b600081519050919050565b600082825260208201905092915050565b6000819050602082019050919050565b611682816114ee565b82525050565b60006116948383611679565b60208301905092915050565b6000602082019050919050565b60006116b88261164d565b6116c28185611658565b93506116cd83611669565b8060005b838110156116fe5781516116e58882611688565b97506116f0836116a0565b9250506001810190506116d1565b5085935050505092915050565b6000602082019050818103600083015261172581846116ad565b905092915050565b600081519050919050565b600082825260208201905092915050565b6000819050602082019050919050565b61176281611383565b82525050565b60006117748383611759565b60208301905092915050565b6000602082019050919050565b60006117988261172d565b6117a28185611738565b93506117ad83611749565b8060005b838110156117de5781516117c58882611768565b97506117d083611780565b9250506001810190506117b1565b5085935050505092915050565b60006020820190508181036000830152611805818461178d565b905092915050565b600080604083850312156118245761182361137e565b5b600061183285828601611517565b925050602061184385828601611517565b9150509250929050565b7f596f75206861766520616c726561647920766f7465642e000000000000000000600082015250565b6000611883601783611427565b915061188e8261184d565b602082019050919050565b600060208201905081810360008301526118b281611876565b9050919050565b7f596f752068617665206e6f742072656365697665642074686520746f6b656e2060008201527f7965742e00000000000000000000000000000000000000000000000000000000602082015250565b6000611915602483611427565b9150611920826118b9565b604082019050919050565b6000602082019050818103600083015261194481611908565b9050919050565b7f4e487b7100000000000000000000000000000000000000000000000000000000600052603260045260246000fd5b7f4e487b7100000000000000000000000000000000000000000000000000000000600052602260045260246000fd5b600060028204905060018216806119c157607f821691505b6020821081036119d4576119d361197a565b5b50919050565b7f4f6e6c79206f776e65722063616e207472616e7366657220746f6b656e73207460008201527f6f20656c696769626c6520766f746572732e0000000000000000000000000000602082015250565b6000611a36603283611427565b9150611a41826119da565b604082019050919050565b60006020820190508181036000830152611a6581611a29565b9050919050565b7f496e76616c696420766f74657220696e6465782e000000000000000000000000600082015250565b6000611aa2601483611427565b9150611aad82611a6c565b602082019050919050565b60006020820190508181036000830152611ad181611a95565b9050919050565b7f4f776e65722063616e6e6f74207472616e73666572206d6f6e657920746f206860008201527f696d73656c662e00000000000000000000000000000000000000000000000000602082015250565b6000611b34602783611427565b9150611b3f82611ad8565b604082019050919050565b60006020820190508181036000830152611b6381611b27565b9050919050565b7f5468697320766f7465722068617320616c726561647920766f7465642e000000600082015250565b6000611ba0601d83611427565b9150611bab82611b6a565b602082019050919050565b60006020820190508181036000830152611bcf81611b93565b9050919050565b7f5468697320766f74657220616c72656164792068617320766f74696e6720726960008201527f676874732e000000000000000000000000000000000000000000000000000000602082015250565b6000611c32602583611427565b9150611c3d82611bd6565b604082019050919050565b60006020820190508181036000830152611c6181611c25565b9050919050565b7f566f74696e6720686173206e6f742073746172746564207965742e0000000000600082015250565b6000611c9e601b83611427565b9150611ca982611c68565b602082019050919050565b60006020820190508181036000830152611ccd81611c91565b9050919050565b7f4e487b7100000000000000000000000000000000000000000000000000000000600052601160045260246000fd5b6000611d0e82611383565b9150611d1983611383565b9250828203905081811115611d3157611d30611cd4565b5b92915050565b611d40816114ee565b82525050565b6000606082019050611d5b6000830186611d37565b611d686020830185611599565b611d756040830184611599565b949350505050565b6000602082019050611d926000830184611d37565b92915050565b6000611da382611383565b9150611dae83611383565b9250828201905080821115611dc657611dc5611cd4565b5b9291505056fea2646970667358221220c2adc0b5ffacbf06df2ba1ba2d40c8889d63c59943023568785f97a6e6bf036b64736f6c63430008180033",
  "linkReferences": {},
  "deployedLinkReferences": {}
}