{
  "_format": "hh-sol-artifact-1",
  "contractName": "VotingToken",
  "sourceName": "contracts/VotingToken.sol",
  "abi": [
    {
      "inputs": [
        {
          "internalType": "address[]",
          "name": "_candidates_addresses",
          "type": "address[]"
        },
        {
          "internalType": "uint256",
          "name": "_durationInMinutes",
          "type": "uint256"
        }
      ],
      "stateMutability": "nonpayable",
      "type": "constructor"
    },
    {
      "inputs": [
        {
          "internalType": "address",
          "name": "spender",
          "type": "address"
        },
        {
          "internalType": "uint256",
          "name": "allowance",
          "type": "uint256"
        },
        {
          "internalType": "uint256",
          "name": "needed",
          "type": "uint256"
        }
      ],
      "name": "ERC20InsufficientAllowance",
      "type": "error"
    },
    {
      "inputs": [
        {
          "internalType": "address",
          "name": "sender",
          "type": "address"
        },
        {
          "internalType": "uint256",
          "name": "balance",
          "type": "uint256"
        },
        {
          "internalType": "uint256",
          "name": "needed",
          "type": "uint256"
        }
      ],
      "name": "ERC20InsufficientBalance",
      "type": "error"
    },
    {
      "inputs": [
        {
          "internalType": "address",
          "name": "approver",
          "type": "address"
        }
      ],
      "name": "ERC20InvalidApprover",
      "type": "error"
    },
    {
      "inputs": [
        {
          "internalType": "address",
          "name": "receiver",
          "type": "address"
        }
      ],
      "name": "ERC20InvalidReceiver",
      "type": "error"
    },
    {
      "inputs": [
        {
          "internalType": "address",
          "name": "sender",
          "type": "address"
        }
      ],
      "name": "ERC20InvalidSender",
      "type": "error"
    },
    {
      "inputs": [
        {
          "internalType": "address",
          "name": "spender",
          "type": "address"
        }
      ],
      "name": "ERC20InvalidSpender",
      "type": "error"
    },
    {
      "anonymous": false,
      "inputs": [
        {
          "indexed": true,
          "internalType": "address",
          "name": "owner",
          "type": "address"
        },
        {
          "indexed": true,
          "internalType": "address",
          "name": "spender",
          "type": "address"
        },
        {
          "indexed": false,
          "internalType": "uint256",
          "name": "value",
          "type": "uint256"
        }
      ],
      "name": "Approval",
      "type": "event"
    },
    {
      "anonymous": false,
      "inputs": [
        {
          "indexed": true,
          "internalType": "address",
          "name": "from",
          "type": "address"
        },
        {
          "indexed": true,
          "internalType": "address",
          "name": "to",
          "type": "address"
        },
        {
          "indexed": false,
          "internalType": "uint256",
          "name": "value",
          "type": "uint256"
        }
      ],
      "name": "Transfer",
      "type": "event"
    },
    {
      "inputs": [
        {
          "internalType": "address",
          "name": "owner",
          "type": "address"
        },
        {
          "internalType": "address",
          "name": "spender",
          "type": "address"
        }
      ],
      "name": "allowance",
      "outputs": [
        {
          "internalType": "uint256",
          "name": "",
          "type": "uint256"
        }
      ],
      "stateMutability": "view",
      "type": "function"
    },
    {
      "inputs": [
        {
          "internalType": "address",
          "name": "spender",
          "type": "address"
        },
        {
          "internalType": "uint256",
          "name": "value",
          "type": "uint256"
        }
      ],
      "name": "approve",
      "outputs": [
        {
          "internalType": "bool",
          "name": "",
          "type": "bool"
        }
      ],
      "stateMutability": "nonpayable",
      "type": "function"
    },
    {
      "inputs": [
        {
          "internalType": "address",
          "name": "account",
          "type": "address"
        }
      ],
      "name": "balanceOf",
      "outputs": [
        {
          "internalType": "uint256",
          "name": "",
          "type": "uint256"
        }
      ],
      "stateMutability": "view",
      "type": "function"
    },
    {
      "inputs": [],
      "name": "decimals",
      "outputs": [
        {
          "internalType": "uint8",
          "name": "",
          "type": "uint8"
        }
      ],
      "stateMutability": "view",
      "type": "function"
    },
    {
      "inputs": [],
      "name": "getRemainingTime",
      "outputs": [
        {
          "internalType": "uint256",
          "name": "",
          "type": "uint256"
        }
      ],
      "stateMutability": "view",
      "type": "function"
    },
    {
      "inputs": [],
      "name": "getVoteResults",
      "outputs": [],
      "stateMutability": "nonpayable",
      "type": "function"
    },
    {
      "inputs": [],
      "name": "getVotingStatus",
      "outputs": [
        {
          "internalType": "bool",
          "name": "",
          "type": "bool"
        }
      ],
      "stateMutability": "view",
      "type": "function"
    },
    {
      "inputs": [
        {
          "internalType": "address",
          "name": "",
          "type": "address"
        }
      ],
      "name": "hasVoted",
      "outputs": [
        {
          "internalType": "bool",
          "name": "",
          "type": "bool"
        }
      ],
      "stateMutability": "view",
      "type": "function"
    },
    {
      "inputs": [],
      "name": "name",
      "outputs": [
        {
          "internalType": "string",
          "name": "",
          "type": "string"
        }
      ],
      "stateMutability": "view",
      "type": "function"
    },
    {
      "inputs": [],
      "name": "symbol",
      "outputs": [
        {
          "internalType": "string",
          "name": "",
          "type": "string"
        }
      ],
      "stateMutability": "view",
      "type": "function"
    },
    {
      "inputs": [],
      "name": "totalSupply",
      "outputs": [
        {
          "internalType": "uint256",
          "name": "",
          "type": "uint256"
        }
      ],
      "stateMutability": "view",
      "type": "function"
    },
    {
      "inputs": [
        {
          "internalType": "address",
          "name": "to",
          "type": "address"
        },
        {
          "internalType": "uint256",
          "name": "value",
          "type": "uint256"
        }
      ],
      "name": "transfer",
      "outputs": [
        {
          "internalType": "bool",
          "name": "",
          "type": "bool"
        }
      ],
      "stateMutability": "nonpayable",
      "type": "function"
    },
    {
      "inputs": [
        {
          "internalType": "address",
          "name": "from",
          "type": "address"
        },
        {
          "internalType": "address",
          "name": "to",
          "type": "address"
        },
        {
          "internalType": "uint256",
          "name": "value",
          "type": "uint256"
        }
      ],
      "name": "transferFrom",
      "outputs": [
        {
          "internalType": "bool",
          "name": "",
          "type": "bool"
        }
      ],
      "stateMutability": "nonpayable",
      "type": "function"
    },
    {
      "inputs": [
        {
          "internalType": "uint256",
          "name": "index",
          "type": "uint256"
        }
      ],
      "name": "vote",
      "outputs": [
        {
          "internalType": "bool",
          "name": "",
          "type": "bool"
        }
      ],
      "stateMutability": "nonpayable",
      "type": "function"
    },
    {
      "inputs": [],
      "name": "votingEnd",
      "outputs": [
        {
          "internalType": "uint256",
          "name": "",
          "type": "uint256"
        }
      ],
      "stateMutability": "view",
      "type": "function"
    },
    {
      "inputs": [
        {
          "internalType": "uint256",
          "name": "",
          "type": "uint256"
        }
      ],
      "name": "votingResults",
      "outputs": [
        {
          "internalType": "uint256",
          "name": "",
          "type": "uint256"
        }
      ],
      "stateMutability": "view",
      "type": "function"
    },
    {
      "inputs": [],
      "name": "votingStart",
      "outputs": [
        {
          "internalType": "uint256",
          "name": "",
          "type": "uint256"
        }
      ],
      "stateMutability": "view",
      "type": "function"
    }
  ],
  "bytecode": "0x60806040523480156200001157600080fd5b50604051620021e8380380620021e8833981810160405281019062000037919062000777565b6040518060400160405280600b81526020017f566f74696e67546f6b656e0000000000000000000000000000000000000000008152506040518060400160405280600381526020017f56544b00000000000000000000000000000000000000000000000000000000008152508160039081620000b4919062000a1e565b508060049081620000c6919062000a1e565b5050506200010933620000de620001de60201b60201c565b60ff16600a620000ef919062000c88565b6064620000fd919062000cd9565b620001e360201b60201c565b33600560006101000a81548173ffffffffffffffffffffffffffffffffffffffff021916908373ffffffffffffffffffffffffffffffffffffffff16021790555042600981905550603c8162000160919062000cd9565b426200016d919062000d24565b600a8190555081600790805190602001906200018b929190620004a0565b5060005b600780549050811015620001d55760086000908060018154018082558091505060019003906000526020600020016000909190919091505580806001019150506200018f565b50505062000df8565b600090565b600073ffffffffffffffffffffffffffffffffffffffff168273ffffffffffffffffffffffffffffffffffffffff1603620002585760006040517fec442f050000000000000000000000000000000000000000000000000000000081526004016200024f919062000d70565b60405180910390fd5b6200026c600083836200027060201b60201c565b5050565b600073ffffffffffffffffffffffffffffffffffffffff168373ffffffffffffffffffffffffffffffffffffffff1603620002c6578060026000828254620002b9919062000d24565b925050819055506200039c565b60008060008573ffffffffffffffffffffffffffffffffffffffff1673ffffffffffffffffffffffffffffffffffffffff1681526020019081526020016000205490508181101562000355578381836040517fe450d38c0000000000000000000000000000000000000000000000000000000081526004016200034c9392919062000d9e565b60405180910390fd5b8181036000808673ffffffffffffffffffffffffffffffffffffffff1673ffffffffffffffffffffffffffffffffffffffff16815260200190815260200160002081905550505b600073ffffffffffffffffffffffffffffffffffffffff168273ffffffffffffffffffffffffffffffffffffffff1603620003e7578060026000828254039250508190555062000434565b806000808473ffffffffffffffffffffffffffffffffffffffff1673ffffffffffffffffffffffffffffffffffffffff168152602001908152602001600020600082825401925050819055505b8173ffffffffffffffffffffffffffffffffffffffff168373ffffffffffffffffffffffffffffffffffffffff167fddf252ad1be2c89b69c2b068fc378daa952ba7f163c4a11628f55a4df523b3ef8360405162000493919062000ddb565b60405180910390a3505050565b8280548282559060005260206000209081019282156200051c579160200282015b828111156200051b5782518260006101000a81548173ffffffffffffffffffffffffffffffffffffffff021916908373ffffffffffffffffffffffffffffffffffffffff16021790555091602001919060010190620004c1565b5b5090506200052b91906200052f565b5090565b5b808211156200054a57600081600090555060010162000530565b5090565b6000604051905090565b600080fd5b600080fd5b600080fd5b6000601f19601f8301169050919050565b7f4e487b7100000000000000000000000000000000000000000000000000000000600052604160045260246000fd5b620005b28262000567565b810181811067ffffffffffffffff82111715620005d457620005d362000578565b5b80604052505050565b6000620005e96200054e565b9050620005f78282620005a7565b919050565b600067ffffffffffffffff8211156200061a576200061962000578565b5b602082029050602081019050919050565b600080fd5b600073ffffffffffffffffffffffffffffffffffffffff82169050919050565b60006200065d8262000630565b9050919050565b6200066f8162000650565b81146200067b57600080fd5b50565b6000815190506200068f8162000664565b92915050565b6000620006ac620006a684620005fc565b620005dd565b90508083825260208201905060208402830185811115620006d257620006d16200062b565b5b835b81811015620006ff5780620006ea88826200067e565b845260208401935050602081019050620006d4565b5050509392505050565b600082601f83011262000721576200072062000562565b5b81516200073384826020860162000695565b91505092915050565b6000819050919050565b62000751816200073c565b81146200075d57600080fd5b50565b600081519050620007718162000746565b92915050565b6000806040838503121562000791576200079062000558565b5b600083015167ffffffffffffffff811115620007b257620007b16200055d565b5b620007c08582860162000709565b9250506020620007d38582860162000760565b9150509250929050565b600081519050919050565b7f4e487b7100000000000000000000000000000000000000000000000000000000600052602260045260246000fd5b600060028204905060018216806200083057607f821691505b602082108103620008465762000845620007e8565b5b50919050565b60008190508160005260206000209050919050565b60006020601f8301049050919050565b600082821b905092915050565b600060088302620008b07fffffffffffffffffffffffffffffffffffffffffffffffffffffffffffffffff8262000871565b620008bc868362000871565b95508019841693508086168417925050509392505050565b6000819050919050565b6000620008ff620008f9620008f3846200073c565b620008d4565b6200073c565b9050919050565b6000819050919050565b6200091b83620008de565b620009336200092a8262000906565b8484546200087e565b825550505050565b600090565b6200094a6200093b565b6200095781848462000910565b505050565b5b818110156200097f576200097360008262000940565b6001810190506200095d565b5050565b601f821115620009ce5762000998816200084c565b620009a38462000861565b81016020851015620009b3578190505b620009cb620009c28562000861565b8301826200095c565b50505b505050565b600082821c905092915050565b6000620009f360001984600802620009d3565b1980831691505092915050565b600062000a0e8383620009e0565b9150826002028217905092915050565b62000a2982620007dd565b67ffffffffffffffff81111562000a455762000a4462000578565b5b62000a51825462000817565b62000a5e82828562000983565b600060209050601f83116001811462000a96576000841562000a81578287015190505b62000a8d858262000a00565b86555062000afd565b601f19841662000aa6866200084c565b60005b8281101562000ad05784890151825560018201915060208501945060208101905062000aa9565b8683101562000af0578489015162000aec601f891682620009e0565b8355505b6001600288020188555050505b505050505050565b7f4e487b7100000000000000000000000000000000000000000000000000000000600052601160045260246000fd5b60008160011c9050919050565b6000808291508390505b600185111562000b935780860481111562000b6b5762000b6a62000b05565b5b600185161562000b7b5780820291505b808102905062000b8b8562000b34565b945062000b4b565b94509492505050565b60008262000bae576001905062000c81565b8162000bbe576000905062000c81565b816001811462000bd7576002811462000be25762000c18565b600191505062000c81565b60ff84111562000bf75762000bf662000b05565b5b8360020a91508482111562000c115762000c1062000b05565b5b5062000c81565b5060208310610133831016604e8410600b841016171562000c525782820a90508381111562000c4c5762000c4b62000b05565b5b62000c81565b62000c61848484600162000b41565b9250905081840481111562000c7b5762000c7a62000b05565b5b81810290505b9392505050565b600062000c95826200073c565b915062000ca2836200073c565b925062000cd17fffffffffffffffffffffffffffffffffffffffffffffffffffffffffffffffff848462000b9c565b905092915050565b600062000ce6826200073c565b915062000cf3836200073c565b925082820262000d03816200073c565b9150828204841483151762000d1d5762000d1c62000b05565b5b5092915050565b600062000d31826200073c565b915062000d3e836200073c565b925082820190508082111562000d595762000d5862000b05565b5b92915050565b62000d6a8162000650565b82525050565b600060208201905062000d87600083018462000d5f565b92915050565b62000d98816200073c565b82525050565b600060608201905062000db5600083018662000d5f565b62000dc4602083018562000d8d565b62000dd3604083018462000d8d565b949350505050565b600060208201905062000df2600083018462000d8d565b92915050565b6113e08062000e086000396000f3fe608060405234801561001057600080fd5b506004361061010b5760003560e01c8063581c281c116100a257806395d89b411161007157806395d89b41146102be5780639a4f7300146102dc578063a9059cbb1461030c578063dd62ed3e1461033c578063efb98bcf1461036c5761010b565b8063581c281c1461024857806370a082311461026657806385a386351461029657806386a66dc3146102b45761010b565b8063101158af116100de578063101158af146101be57806318160ddd146101dc57806323b872dd146101fa578063313ce5671461022a5761010b565b80630121b93f1461011057806306fdde0314610140578063095ea7b31461015e57806309eef43e1461018e575b600080fd5b61012a60048036038101906101259190610e77565b61038a565b6040516101379190610ebf565b60405180910390f35b6101486104c1565b6040516101559190610f6a565b60405180910390f35b61017860048036038101906101739190610fea565b610553565b6040516101859190610ebf565b60405180910390f35b6101a860048036038101906101a3919061102a565b610576565b6040516101b59190610ebf565b60405180910390f35b6101c6610596565b6040516101d39190611066565b60405180910390f35b6101e461059c565b6040516101f19190611066565b60405180910390f35b610214600480360381019061020f9190611081565b6105a6565b6040516102219190610ebf565b60405180910390f35b6102326105d5565b60405161023f91906110f0565b60405180910390f35b6102506105da565b60405161025d9190610ebf565b60405180910390f35b610280600480360381019061027b919061102a565b6105f4565b60405161028d9190611066565b60405180910390f35b61029e61063c565b6040516102ab9190611066565b60405180910390f35b6102bc610642565b005b6102c66106d1565b6040516102d39190610f6a565b60405180910390f35b6102f660048036038101906102f19190610e77565b610763565b6040516103039190611066565b60405180910390f35b61032660048036038101906103219190610fea565b610787565b6040516103339190610ebf565b60405180910390f35b6103566004803603810190610351919061110b565b6107aa565b6040516103639190611066565b60405180910390f35b610374610831565b6040516103819190611066565b60405180910390f35b6000600660003373ffffffffffffffffffffffffffffffffffffffff1673ffffffffffffffffffffffffffffffffffffffff16815260200190815260200160002060009054906101000a900460ff1615610419576040517f08c379a000000000000000000000000000000000000000000000000000000000815260040161041090611197565b60405180910390fd5b6001600660003373ffffffffffffffffffffffffffffffffffffffff1673ffffffffffffffffffffffffffffffffffffffff16815260200190815260200160002060006101000a81548160ff0219169083151502179055506104ba60078381548110610488576104876111b7565b5b9060005260206000200160009054906101000a900473ffffffffffffffffffffffffffffffffffffffff166001610787565b9050919050565b6060600380546104d090611215565b80601f01602080910402602001604051908101604052809291908181526020018280546104fc90611215565b80156105495780601f1061051e57610100808354040283529160200191610549565b820191906000526020600020905b81548152906001019060200180831161052c57829003601f168201915b5050505050905090565b60008061055e61089e565b905061056b8185856108a6565b600191505092915050565b60066020528060005260406000206000915054906101000a900460ff1681565b60095481565b6000600254905090565b6000806105b161089e565b90506105be8582856108b8565b6105c985858561094c565b60019150509392505050565b600090565b600060095442101580156105ef5750600a5442105b905090565b60008060008373ffffffffffffffffffffffffffffffffffffffff1673ffffffffffffffffffffffffffffffffffffffff168152602001908152602001600020549050919050565b600a5481565b60005b6007805490508110156106ce57600861069b6007838154811061066b5761066a6111b7565b5b9060005260206000200160009054906101000a900473ffffffffffffffffffffffffffffffffffffffff166105f4565b90806001815401808255809150506001900390600052602060002001600090919091909150558080600101915050610645565b50565b6060600480546106e090611215565b80601f016020809104026020016040519081016040528092919081815260200182805461070c90611215565b80156107595780601f1061072e57610100808354040283529160200191610759565b820191906000526020600020905b81548152906001019060200180831161073c57829003601f168201915b5050505050905090565b6008818154811061077357600080fd5b906000526020600020016000915090505481565b60008061079261089e565b905061079f81858561094c565b600191505092915050565b6000600160008473ffffffffffffffffffffffffffffffffffffffff1673ffffffffffffffffffffffffffffffffffffffff16815260200190815260200160002060008373ffffffffffffffffffffffffffffffffffffffff1673ffffffffffffffffffffffffffffffffffffffff16815260200190815260200160002054905092915050565b6000600954421015610878576040517f08c379a000000000000000000000000000000000000000000000000000000000815260040161086f90611292565b60405180910390fd5b600a54421061088a576000905061089b565b42600a5461089891906112e1565b90505b90565b600033905090565b6108b38383836001610a40565b505050565b60006108c484846107aa565b90507fffffffffffffffffffffffffffffffffffffffffffffffffffffffffffffffff81146109465781811015610936578281836040517ffb8f41b200000000000000000000000000000000000000000000000000000000815260040161092d93929190611324565b60405180910390fd5b61094584848484036000610a40565b5b50505050565b600073ffffffffffffffffffffffffffffffffffffffff168373ffffffffffffffffffffffffffffffffffffffff16036109be5760006040517f96c6fd1e0000000000000000000000000000000000000000000000000000000081526004016109b5919061135b565b60405180910390fd5b600073ffffffffffffffffffffffffffffffffffffffff168273ffffffffffffffffffffffffffffffffffffffff1603610a305760006040517fec442f05000000000000000000000000000000000000000000000000000000008152600401610a27919061135b565b60405180910390fd5b610a3b838383610c17565b505050565b600073ffffffffffffffffffffffffffffffffffffffff168473ffffffffffffffffffffffffffffffffffffffff1603610ab25760006040517fe602df05000000000000000000000000000000000000000000000000000000008152600401610aa9919061135b565b60405180910390fd5b600073ffffffffffffffffffffffffffffffffffffffff168373ffffffffffffffffffffffffffffffffffffffff1603610b245760006040517f94280d62000000000000000000000000000000000000000000000000000000008152600401610b1b919061135b565b60405180910390fd5b81600160008673ffffffffffffffffffffffffffffffffffffffff1673ffffffffffffffffffffffffffffffffffffffff16815260200190815260200160002060008573ffffffffffffffffffffffffffffffffffffffff1673ffffffffffffffffffffffffffffffffffffffff168152602001908152602001600020819055508015610c11578273ffffffffffffffffffffffffffffffffffffffff168473ffffffffffffffffffffffffffffffffffffffff167f8c5be1e5ebec7d5bd14f71427d1e84f3dd0314c0f7b2291e5b200ac8c7c3b92584604051610c089190611066565b60405180910390a35b50505050565b600073ffffffffffffffffffffffffffffffffffffffff168373ffffffffffffffffffffffffffffffffffffffff1603610c69578060026000828254610c5d9190611376565b92505081905550610d3c565b60008060008573ffffffffffffffffffffffffffffffffffffffff1673ffffffffffffffffffffffffffffffffffffffff16815260200190815260200160002054905081811015610cf5578381836040517fe450d38c000000000000000000000000000000000000000000000000000000008152600401610cec93929190611324565b60405180910390fd5b8181036000808673ffffffffffffffffffffffffffffffffffffffff1673ffffffffffffffffffffffffffffffffffffffff16815260200190815260200160002081905550505b600073ffffffffffffffffffffffffffffffffffffffff168273ffffffffffffffffffffffffffffffffffffffff1603610d855780600260008282540392505081905550610dd2565b806000808473ffffffffffffffffffffffffffffffffffffffff1673ffffffffffffffffffffffffffffffffffffffff168152602001908152602001600020600082825401925050819055505b8173ffffffffffffffffffffffffffffffffffffffff168373ffffffffffffffffffffffffffffffffffffffff167fddf252ad1be2c89b69c2b068fc378daa952ba7f163c4a11628f55a4df523b3ef83604051610e2f9190611066565b60405180910390a3505050565b600080fd5b6000819050919050565b610e5481610e41565b8114610e5f57600080fd5b50565b600081359050610e7181610e4b565b92915050565b600060208284031215610e8d57610e8c610e3c565b5b6000610e9b84828501610e62565b91505092915050565b60008115159050919050565b610eb981610ea4565b82525050565b6000602082019050610ed46000830184610eb0565b92915050565b600081519050919050565b600082825260208201905092915050565b60005b83811015610f14578082015181840152602081019050610ef9565b60008484015250505050565b6000601f19601f8301169050919050565b6000610f3c82610eda565b610f468185610ee5565b9350610f56818560208601610ef6565b610f5f81610f20565b840191505092915050565b60006020820190508181036000830152610f848184610f31565b905092915050565b600073ffffffffffffffffffffffffffffffffffffffff82169050919050565b6000610fb782610f8c565b9050919050565b610fc781610fac565b8114610fd257600080fd5b50565b600081359050610fe481610fbe565b92915050565b6000806040838503121561100157611000610e3c565b5b600061100f85828601610fd5565b925050602061102085828601610e62565b9150509250929050565b6000602082840312156110405761103f610e3c565b5b600061104e84828501610fd5565b91505092915050565b61106081610e41565b82525050565b600060208201905061107b6000830184611057565b92915050565b60008060006060848603121561109a57611099610e3c565b5b60006110a886828701610fd5565b93505060206110b986828701610fd5565b92505060406110ca86828701610e62565b9150509250925092565b600060ff82169050919050565b6110ea816110d4565b82525050565b600060208201905061110560008301846110e1565b92915050565b6000806040838503121561112257611121610e3c565b5b600061113085828601610fd5565b925050602061114185828601610fd5565b9150509250929050565b7f596f75206861766520616c726561647920766f7465642e000000000000000000600082015250565b6000611181601783610ee5565b915061118c8261114b565b602082019050919050565b600060208201905081810360008301526111b081611174565b9050919050565b7f4e487b7100000000000000000000000000000000000000000000000000000000600052603260045260246000fd5b7f4e487b7100000000000000000000000000000000000000000000000000000000600052602260045260246000fd5b6000600282049050600182168061122d57607f821691505b6020821081036112405761123f6111e6565b5b50919050565b7f566f74696e6720686173206e6f742073746172746564207965742e0000000000600082015250565b600061127c601b83610ee5565b915061128782611246565b602082019050919050565b600060208201905081810360008301526112ab8161126f565b9050919050565b7f4e487b7100000000000000000000000000000000000000000000000000000000600052601160045260246000fd5b60006112ec82610e41565b91506112f783610e41565b925082820390508181111561130f5761130e6112b2565b5b92915050565b61131e81610fac565b82525050565b60006060820190506113396000830186611315565b6113466020830185611057565b6113536040830184611057565b949350505050565b60006020820190506113706000830184611315565b92915050565b600061138182610e41565b915061138c83610e41565b92508282019050808211156113a4576113a36112b2565b5b9291505056fea26469706673582212203aab0d2b1891b0b5eee5d761df05ef745e2c9c5a8212c17a9dd5819d3e461d7364736f6c63430008180033",
  "linkReferences": {},
  "deployedLinkReferences": {}
}