{
  "_format": "hh-sol-artifact-1",
  "contractName": "VotingToken",
  "sourceName": "contracts/VotingToken.sol",
  "abi": [
    {
      "inputs": [
        {
          "internalType": "address[]",
          "name": "_voters_addresses",
          "type": "address[]"
        },
        {
          "internalType": "address[]",
          "name": "_candidates_addresses",
          "type": "address[]"
        },
        {
          "internalType": "uint256",
          "name": "_durationInMinutes",
          "type": "uint256"
        }
      ],
      "stateMutability": "nonpayable",
      "type": "constructor"
    },
    {
      "inputs": [
        {
          "internalType": "address",
          "name": "spender",
          "type": "address"
        },
        {
          "internalType": "uint256",
          "name": "allowance",
          "type": "uint256"
        },
        {
          "internalType": "uint256",
          "name": "needed",
          "type": "uint256"
        }
      ],
      "name": "ERC20InsufficientAllowance",
      "type": "error"
    },
    {
      "inputs": [
        {
          "internalType": "address",
          "name": "sender",
          "type": "address"
        },
        {
          "internalType": "uint256",
          "name": "balance",
          "type": "uint256"
        },
        {
          "internalType": "uint256",
          "name": "needed",
          "type": "uint256"
        }
      ],
      "name": "ERC20InsufficientBalance",
      "type": "error"
    },
    {
      "inputs": [
        {
          "internalType": "address",
          "name": "approver",
          "type": "address"
        }
      ],
      "name": "ERC20InvalidApprover",
      "type": "error"
    },
    {
      "inputs": [
        {
          "internalType": "address",
          "name": "receiver",
          "type": "address"
        }
      ],
      "name": "ERC20InvalidReceiver",
      "type": "error"
    },
    {
      "inputs": [
        {
          "internalType": "address",
          "name": "sender",
          "type": "address"
        }
      ],
      "name": "ERC20InvalidSender",
      "type": "error"
    },
    {
      "inputs": [
        {
          "internalType": "address",
          "name": "spender",
          "type": "address"
        }
      ],
      "name": "ERC20InvalidSpender",
      "type": "error"
    },
    {
      "anonymous": false,
      "inputs": [
        {
          "indexed": true,
          "internalType": "address",
          "name": "owner",
          "type": "address"
        },
        {
          "indexed": true,
          "internalType": "address",
          "name": "spender",
          "type": "address"
        },
        {
          "indexed": false,
          "internalType": "uint256",
          "name": "value",
          "type": "uint256"
        }
      ],
      "name": "Approval",
      "type": "event"
    },
    {
      "anonymous": false,
      "inputs": [
        {
          "indexed": true,
          "internalType": "address",
          "name": "from",
          "type": "address"
        },
        {
          "indexed": true,
          "internalType": "address",
          "name": "to",
          "type": "address"
        },
        {
          "indexed": false,
          "internalType": "uint256",
          "name": "value",
          "type": "uint256"
        }
      ],
      "name": "Transfer",
      "type": "event"
    },
    {
      "inputs": [
        {
          "internalType": "address",
          "name": "owner",
          "type": "address"
        },
        {
          "internalType": "address",
          "name": "spender",
          "type": "address"
        }
      ],
      "name": "allowance",
      "outputs": [
        {
          "internalType": "uint256",
          "name": "",
          "type": "uint256"
        }
      ],
      "stateMutability": "view",
      "type": "function"
    },
    {
      "inputs": [
        {
          "internalType": "address",
          "name": "spender",
          "type": "address"
        },
        {
          "internalType": "uint256",
          "name": "value",
          "type": "uint256"
        }
      ],
      "name": "approve",
      "outputs": [
        {
          "internalType": "bool",
          "name": "",
          "type": "bool"
        }
      ],
      "stateMutability": "nonpayable",
      "type": "function"
    },
    {
      "inputs": [
        {
          "internalType": "address",
          "name": "account",
          "type": "address"
        }
      ],
      "name": "balanceOf",
      "outputs": [
        {
          "internalType": "uint256",
          "name": "",
          "type": "uint256"
        }
      ],
      "stateMutability": "view",
      "type": "function"
    },
    {
      "inputs": [],
      "name": "decimals",
      "outputs": [
        {
          "internalType": "uint8",
          "name": "",
          "type": "uint8"
        }
      ],
      "stateMutability": "view",
      "type": "function"
    },
    {
      "inputs": [],
      "name": "getCandidateAddresses",
      "outputs": [
        {
          "internalType": "address[]",
          "name": "",
          "type": "address[]"
        }
      ],
      "stateMutability": "view",
      "type": "function"
    },
    {
      "inputs": [],
      "name": "getRemainingTime",
      "outputs": [
        {
          "internalType": "uint256",
          "name": "",
          "type": "uint256"
        }
      ],
      "stateMutability": "view",
      "type": "function"
    },
    {
      "inputs": [],
      "name": "getVotingResults",
      "outputs": [
        {
          "internalType": "uint256[]",
          "name": "",
          "type": "uint256[]"
        }
      ],
      "stateMutability": "view",
      "type": "function"
    },
    {
      "inputs": [],
      "name": "getVotingStatus",
      "outputs": [
        {
          "internalType": "bool",
          "name": "",
          "type": "bool"
        }
      ],
      "stateMutability": "view",
      "type": "function"
    },
    {
      "inputs": [
        {
          "internalType": "address",
          "name": "to",
          "type": "address"
        }
      ],
      "name": "giveRightToVote",
      "outputs": [],
      "stateMutability": "nonpayable",
      "type": "function"
    },
    {
      "inputs": [
        {
          "internalType": "address",
          "name": "voter",
          "type": "address"
        }
      ],
      "name": "hasVoted",
      "outputs": [
        {
          "internalType": "bool",
          "name": "",
          "type": "bool"
        }
      ],
      "stateMutability": "view",
      "type": "function"
    },
    {
      "inputs": [],
      "name": "name",
      "outputs": [
        {
          "internalType": "string",
          "name": "",
          "type": "string"
        }
      ],
      "stateMutability": "view",
      "type": "function"
    },
    {
      "inputs": [],
      "name": "setVoteResults",
      "outputs": [],
      "stateMutability": "nonpayable",
      "type": "function"
    },
    {
      "inputs": [],
      "name": "symbol",
      "outputs": [
        {
          "internalType": "string",
          "name": "",
          "type": "string"
        }
      ],
      "stateMutability": "view",
      "type": "function"
    },
    {
      "inputs": [],
      "name": "totalSupply",
      "outputs": [
        {
          "internalType": "uint256",
          "name": "",
          "type": "uint256"
        }
      ],
      "stateMutability": "view",
      "type": "function"
    },
    {
      "inputs": [
        {
          "internalType": "address",
          "name": "to",
          "type": "address"
        },
        {
          "internalType": "uint256",
          "name": "value",
          "type": "uint256"
        }
      ],
      "name": "transfer",
      "outputs": [
        {
          "internalType": "bool",
          "name": "",
          "type": "bool"
        }
      ],
      "stateMutability": "nonpayable",
      "type": "function"
    },
    {
      "inputs": [
        {
          "internalType": "address",
          "name": "from",
          "type": "address"
        },
        {
          "internalType": "address",
          "name": "to",
          "type": "address"
        },
        {
          "internalType": "uint256",
          "name": "value",
          "type": "uint256"
        }
      ],
      "name": "transferFrom",
      "outputs": [
        {
          "internalType": "bool",
          "name": "",
          "type": "bool"
        }
      ],
      "stateMutability": "nonpayable",
      "type": "function"
    },
    {
      "inputs": [
        {
          "internalType": "uint256",
          "name": "index",
          "type": "uint256"
        }
      ],
      "name": "vote",
      "outputs": [
        {
          "internalType": "bool",
          "name": "",
          "type": "bool"
        }
      ],
      "stateMutability": "nonpayable",
      "type": "function"
    },
    {
      "inputs": [
        {
          "internalType": "address",
          "name": "",
          "type": "address"
        }
      ],
      "name": "voters",
      "outputs": [
        {
          "internalType": "bool",
          "name": "",
          "type": "bool"
        }
      ],
      "stateMutability": "view",
      "type": "function"
    },
    {
      "inputs": [],
      "name": "votingEnd",
      "outputs": [
        {
          "internalType": "uint256",
          "name": "",
          "type": "uint256"
        }
      ],
      "stateMutability": "view",
      "type": "function"
    },
    {
      "inputs": [
        {
          "internalType": "uint256",
          "name": "",
          "type": "uint256"
        }
      ],
      "name": "votingResults",
      "outputs": [
        {
          "internalType": "uint256",
          "name": "",
          "type": "uint256"
        }
      ],
      "stateMutability": "view",
      "type": "function"
    },
    {
      "inputs": [],
      "name": "votingStart",
      "outputs": [
        {
          "internalType": "uint256",
          "name": "",
          "type": "uint256"
        }
      ],
      "stateMutability": "view",
      "type": "function"
    }
  ],
  "bytecode": "0x60806040523480156200001157600080fd5b5060405162002955380380620029558339818101604052810190620000379190620007ff565b6040518060400160405280600b81526020017f566f74696e67546f6b656e0000000000000000000000000000000000000000008152506040518060400160405280600381526020017f56544b00000000000000000000000000000000000000000000000000000000008152508160039081620000b4919062000ada565b508060049081620000c6919062000ada565b5050506200010933620000de6200021460201b60201c565b60ff16600a620000ef919062000d44565b6064620000fd919062000d95565b6200021960201b60201c565b33600560006101000a81548173ffffffffffffffffffffffffffffffffffffffff021916908373ffffffffffffffffffffffffffffffffffffffff16021790555042600a81905550603c8162000160919062000d95565b426200016d919062000de0565b600b8190555081600890805190602001906200018b929190620004d6565b50815167ffffffffffffffff811115620001aa57620001a962000600565b5b604051908082528060200260200182016040528015620001d95781602001602082028036833780820191505090505b5060099080519060200190620001f192919062000565565b5082600790805190602001906200020a929190620004d6565b5050505062000eb4565b600090565b600073ffffffffffffffffffffffffffffffffffffffff168273ffffffffffffffffffffffffffffffffffffffff16036200028e5760006040517fec442f0500000000000000000000000000000000000000000000000000000000815260040162000285919062000e2c565b60405180910390fd5b620002a260008383620002a660201b60201c565b5050565b600073ffffffffffffffffffffffffffffffffffffffff168373ffffffffffffffffffffffffffffffffffffffff1603620002fc578060026000828254620002ef919062000de0565b92505081905550620003d2565b60008060008573ffffffffffffffffffffffffffffffffffffffff1673ffffffffffffffffffffffffffffffffffffffff168152602001908152602001600020549050818110156200038b578381836040517fe450d38c000000000000000000000000000000000000000000000000000000008152600401620003829392919062000e5a565b60405180910390fd5b8181036000808673ffffffffffffffffffffffffffffffffffffffff1673ffffffffffffffffffffffffffffffffffffffff16815260200190815260200160002081905550505b600073ffffffffffffffffffffffffffffffffffffffff168273ffffffffffffffffffffffffffffffffffffffff16036200041d57806002600082825403925050819055506200046a565b806000808473ffffffffffffffffffffffffffffffffffffffff1673ffffffffffffffffffffffffffffffffffffffff168152602001908152602001600020600082825401925050819055505b8173ffffffffffffffffffffffffffffffffffffffff168373ffffffffffffffffffffffffffffffffffffffff167fddf252ad1be2c89b69c2b068fc378daa952ba7f163c4a11628f55a4df523b3ef83604051620004c9919062000e97565b60405180910390a3505050565b82805482825590600052602060002090810192821562000552579160200282015b82811115620005515782518260006101000a81548173ffffffffffffffffffffffffffffffffffffffff021916908373ffffffffffffffffffffffffffffffffffffffff16021790555091602001919060010190620004f7565b5b509050620005619190620005b7565b5090565b828054828255906000526020600020908101928215620005a4579160200282015b82811115620005a357825182559160200191906001019062000586565b5b509050620005b39190620005b7565b5090565b5b80821115620005d2576000816000905550600101620005b8565b5090565b6000604051905090565b600080fd5b600080fd5b600080fd5b6000601f19601f8301169050919050565b7f4e487b7100000000000000000000000000000000000000000000000000000000600052604160045260246000fd5b6200063a82620005ef565b810181811067ffffffffffffffff821117156200065c576200065b62000600565b5b80604052505050565b600062000671620005d6565b90506200067f82826200062f565b919050565b600067ffffffffffffffff821115620006a257620006a162000600565b5b602082029050602081019050919050565b600080fd5b600073ffffffffffffffffffffffffffffffffffffffff82169050919050565b6000620006e582620006b8565b9050919050565b620006f781620006d8565b81146200070357600080fd5b50565b6000815190506200071781620006ec565b92915050565b6000620007346200072e8462000684565b62000665565b905080838252602082019050602084028301858111156200075a5762000759620006b3565b5b835b8181101562000787578062000772888262000706565b8452602084019350506020810190506200075c565b5050509392505050565b600082601f830112620007a957620007a8620005ea565b5b8151620007bb8482602086016200071d565b91505092915050565b6000819050919050565b620007d981620007c4565b8114620007e557600080fd5b50565b600081519050620007f981620007ce565b92915050565b6000806000606084860312156200081b576200081a620005e0565b5b600084015167ffffffffffffffff8111156200083c576200083b620005e5565b5b6200084a8682870162000791565b935050602084015167ffffffffffffffff8111156200086e576200086d620005e5565b5b6200087c8682870162000791565b92505060406200088f86828701620007e8565b9150509250925092565b600081519050919050565b7f4e487b7100000000000000000000000000000000000000000000000000000000600052602260045260246000fd5b60006002820490506001821680620008ec57607f821691505b602082108103620009025762000901620008a4565b5b50919050565b60008190508160005260206000209050919050565b60006020601f8301049050919050565b600082821b905092915050565b6000600883026200096c7fffffffffffffffffffffffffffffffffffffffffffffffffffffffffffffffff826200092d565b6200097886836200092d565b95508019841693508086168417925050509392505050565b6000819050919050565b6000620009bb620009b5620009af84620007c4565b62000990565b620007c4565b9050919050565b6000819050919050565b620009d7836200099a565b620009ef620009e682620009c2565b8484546200093a565b825550505050565b600090565b62000a06620009f7565b62000a13818484620009cc565b505050565b5b8181101562000a3b5762000a2f600082620009fc565b60018101905062000a19565b5050565b601f82111562000a8a5762000a548162000908565b62000a5f846200091d565b8101602085101562000a6f578190505b62000a8762000a7e856200091d565b83018262000a18565b50505b505050565b600082821c905092915050565b600062000aaf6000198460080262000a8f565b1980831691505092915050565b600062000aca838362000a9c565b9150826002028217905092915050565b62000ae58262000899565b67ffffffffffffffff81111562000b015762000b0062000600565b5b62000b0d8254620008d3565b62000b1a82828562000a3f565b600060209050601f83116001811462000b52576000841562000b3d578287015190505b62000b49858262000abc565b86555062000bb9565b601f19841662000b628662000908565b60005b8281101562000b8c5784890151825560018201915060208501945060208101905062000b65565b8683101562000bac578489015162000ba8601f89168262000a9c565b8355505b6001600288020188555050505b505050505050565b7f4e487b7100000000000000000000000000000000000000000000000000000000600052601160045260246000fd5b60008160011c9050919050565b6000808291508390505b600185111562000c4f5780860481111562000c275762000c2662000bc1565b5b600185161562000c375780820291505b808102905062000c478562000bf0565b945062000c07565b94509492505050565b60008262000c6a576001905062000d3d565b8162000c7a576000905062000d3d565b816001811462000c93576002811462000c9e5762000cd4565b600191505062000d3d565b60ff84111562000cb35762000cb262000bc1565b5b8360020a91508482111562000ccd5762000ccc62000bc1565b5b5062000d3d565b5060208310610133831016604e8410600b841016171562000d0e5782820a90508381111562000d085762000d0762000bc1565b5b62000d3d565b62000d1d848484600162000bfd565b9250905081840481111562000d375762000d3662000bc1565b5b81810290505b9392505050565b600062000d5182620007c4565b915062000d5e83620007c4565b925062000d8d7fffffffffffffffffffffffffffffffffffffffffffffffffffffffffffffffff848462000c58565b905092915050565b600062000da282620007c4565b915062000daf83620007c4565b925082820262000dbf81620007c4565b9150828204841483151762000dd95762000dd862000bc1565b5b5092915050565b600062000ded82620007c4565b915062000dfa83620007c4565b925082820190508082111562000e155762000e1462000bc1565b5b92915050565b62000e2681620006d8565b82525050565b600060208201905062000e43600083018462000e1b565b92915050565b62000e5481620007c4565b82525050565b600060608201905062000e71600083018662000e1b565b62000e80602083018562000e49565b62000e8f604083018462000e49565b949350505050565b600060208201905062000eae600083018462000e49565b92915050565b611a918062000ec46000396000f3fe608060405234801561001057600080fd5b50600436106101375760003560e01c80638155f736116100b8578063a3ec138d1161007c578063a3ec138d14610368578063a9059cbb14610398578063c58e9d53146103c8578063da650ec6146103d2578063dd62ed3e146103f0578063efb98bcf1461042057610137565b80638155f736146102c257806385a38635146102e057806395d89b41146102fe5780639a4f73001461031c5780639e7b8d611461034c57610137565b806318160ddd116100ff57806318160ddd1461020857806323b872dd14610226578063313ce56714610256578063581c281c1461027457806370a082311461029257610137565b80630121b93f1461013c57806306fdde031461016c578063095ea7b31461018a57806309eef43e146101ba578063101158af146101ea575b600080fd5b610156600480360381019061015191906111d8565b61043e565b6040516101639190611220565b60405180910390f35b610174610575565b60405161018191906112cb565b60405180910390f35b6101a4600480360381019061019f919061134b565b610607565b6040516101b19190611220565b60405180910390f35b6101d460048036038101906101cf919061138b565b61062a565b6040516101e19190611220565b60405180910390f35b6101f2610680565b6040516101ff91906113c7565b60405180910390f35b610210610686565b60405161021d91906113c7565b60405180910390f35b610240600480360381019061023b91906113e2565b610690565b60405161024d9190611220565b60405180910390f35b61025e6106bf565b60405161026b9190611451565b60405180910390f35b61027c6106c4565b6040516102899190611220565b60405180910390f35b6102ac60048036038101906102a7919061138b565b6106de565b6040516102b991906113c7565b60405180910390f35b6102ca610726565b6040516102d7919061152a565b60405180910390f35b6102e86107b4565b6040516102f591906113c7565b60405180910390f35b6103066107ba565b60405161031391906112cb565b60405180910390f35b610336600480360381019061033191906111d8565b61084c565b60405161034391906113c7565b60405180910390f35b6103666004803603810190610361919061138b565b610870565b005b610382600480360381019061037d919061138b565b6109e7565b60405161038f9190611220565b60405180910390f35b6103b260048036038101906103ad919061134b565b610a07565b6040516103bf9190611220565b60405180910390f35b6103d0610a2a565b005b6103da610ab3565b6040516103e7919061160a565b60405180910390f35b61040a6004803603810190610405919061162c565b610b0b565b60405161041791906113c7565b60405180910390f35b610428610b92565b60405161043591906113c7565b60405180910390f35b6000600660003373ffffffffffffffffffffffffffffffffffffffff1673ffffffffffffffffffffffffffffffffffffffff16815260200190815260200160002060009054906101000a900460ff16156104cd576040517f08c379a00000000000000000000000000000000000000000000000000000000081526004016104c4906116b8565b60405180910390fd5b6001600660003373ffffffffffffffffffffffffffffffffffffffff1673ffffffffffffffffffffffffffffffffffffffff16815260200190815260200160002060006101000a81548160ff02191690831515021790555061056e6008838154811061053c5761053b6116d8565b5b9060005260206000200160009054906101000a900473ffffffffffffffffffffffffffffffffffffffff166001610a07565b9050919050565b60606003805461058490611736565b80601f01602080910402602001604051908101604052809291908181526020018280546105b090611736565b80156105fd5780601f106105d2576101008083540402835291602001916105fd565b820191906000526020600020905b8154815290600101906020018083116105e057829003601f168201915b5050505050905090565b600080610612610bff565b905061061f818585610c07565b600191505092915050565b6000600660008373ffffffffffffffffffffffffffffffffffffffff1673ffffffffffffffffffffffffffffffffffffffff16815260200190815260200160002060009054906101000a900460ff169050919050565b600a5481565b6000600254905090565b60008061069b610bff565b90506106a8858285610c19565b6106b3858585610cad565b60019150509392505050565b600090565b6000600a5442101580156106d95750600b5442105b905090565b60008060008373ffffffffffffffffffffffffffffffffffffffff1673ffffffffffffffffffffffffffffffffffffffff168152602001908152602001600020549050919050565b606060088054806020026020016040519081016040528092919081815260200182805480156107aa57602002820191906000526020600020905b8160009054906101000a900473ffffffffffffffffffffffffffffffffffffffff1673ffffffffffffffffffffffffffffffffffffffff1681526020019060010190808311610760575b5050505050905090565b600b5481565b6060600480546107c990611736565b80601f01602080910402602001604051908101604052809291908181526020018280546107f590611736565b80156108425780601f1061081757610100808354040283529160200191610842565b820191906000526020600020905b81548152906001019060200180831161082557829003601f168201915b5050505050905090565b6009818154811061085c57600080fd5b906000526020600020016000915090505481565b3373ffffffffffffffffffffffffffffffffffffffff16600560009054906101000a900473ffffffffffffffffffffffffffffffffffffffff1673ffffffffffffffffffffffffffffffffffffffff1614610900576040517f08c379a00000000000000000000000000000000000000000000000000000000081526004016108f7906117d9565b60405180910390fd5b600660008273ffffffffffffffffffffffffffffffffffffffff1673ffffffffffffffffffffffffffffffffffffffff16815260200190815260200160002060009054906101000a900460ff161561098d576040517f08c379a000000000000000000000000000000000000000000000000000000000815260040161098490611845565b60405180910390fd5b6000610998826106de565b146109d8576040517f08c379a00000000000000000000000000000000000000000000000000000000081526004016109cf906118d7565b60405180910390fd5b6109e3816001610a07565b5050565b60066020528060005260406000206000915054906101000a900460ff1681565b600080610a12610bff565b9050610a1f818585610cad565b600191505092915050565b60005b600880549050811015610ab057610a8160088281548110610a5157610a506116d8565b5b9060005260206000200160009054906101000a900473ffffffffffffffffffffffffffffffffffffffff166106de565b60098281548110610a9557610a946116d8565b5b90600052602060002001819055508080600101915050610a2d565b50565b60606009805480602002602001604051908101604052809291908181526020018280548015610b0157602002820191906000526020600020905b815481526020019060010190808311610aed575b5050505050905090565b6000600160008473ffffffffffffffffffffffffffffffffffffffff1673ffffffffffffffffffffffffffffffffffffffff16815260200190815260200160002060008373ffffffffffffffffffffffffffffffffffffffff1673ffffffffffffffffffffffffffffffffffffffff16815260200190815260200160002054905092915050565b6000600a54421015610bd9576040517f08c379a0000000000000000000000000000000000000000000000000000000008152600401610bd090611943565b60405180910390fd5b600b544210610beb5760009050610bfc565b42600b54610bf99190611992565b90505b90565b600033905090565b610c148383836001610da1565b505050565b6000610c258484610b0b565b90507fffffffffffffffffffffffffffffffffffffffffffffffffffffffffffffffff8114610ca75781811015610c97578281836040517ffb8f41b2000000000000000000000000000000000000000000000000000000008152600401610c8e939291906119d5565b60405180910390fd5b610ca684848484036000610da1565b5b50505050565b600073ffffffffffffffffffffffffffffffffffffffff168373ffffffffffffffffffffffffffffffffffffffff1603610d1f5760006040517f96c6fd1e000000000000000000000000000000000000000000000000000000008152600401610d169190611a0c565b60405180910390fd5b600073ffffffffffffffffffffffffffffffffffffffff168273ffffffffffffffffffffffffffffffffffffffff1603610d915760006040517fec442f05000000000000000000000000000000000000000000000000000000008152600401610d889190611a0c565b60405180910390fd5b610d9c838383610f78565b505050565b600073ffffffffffffffffffffffffffffffffffffffff168473ffffffffffffffffffffffffffffffffffffffff1603610e135760006040517fe602df05000000000000000000000000000000000000000000000000000000008152600401610e0a9190611a0c565b60405180910390fd5b600073ffffffffffffffffffffffffffffffffffffffff168373ffffffffffffffffffffffffffffffffffffffff1603610e855760006040517f94280d62000000000000000000000000000000000000000000000000000000008152600401610e7c9190611a0c565b60405180910390fd5b81600160008673ffffffffffffffffffffffffffffffffffffffff1673ffffffffffffffffffffffffffffffffffffffff16815260200190815260200160002060008573ffffffffffffffffffffffffffffffffffffffff1673ffffffffffffffffffffffffffffffffffffffff168152602001908152602001600020819055508015610f72578273ffffffffffffffffffffffffffffffffffffffff168473ffffffffffffffffffffffffffffffffffffffff167f8c5be1e5ebec7d5bd14f71427d1e84f3dd0314c0f7b2291e5b200ac8c7c3b92584604051610f6991906113c7565b60405180910390a35b50505050565b600073ffffffffffffffffffffffffffffffffffffffff168373ffffffffffffffffffffffffffffffffffffffff1603610fca578060026000828254610fbe9190611a27565b9250508190555061109d565b60008060008573ffffffffffffffffffffffffffffffffffffffff1673ffffffffffffffffffffffffffffffffffffffff16815260200190815260200160002054905081811015611056578381836040517fe450d38c00000000000000000000000000000000000000000000000000000000815260040161104d939291906119d5565b60405180910390fd5b8181036000808673ffffffffffffffffffffffffffffffffffffffff1673ffffffffffffffffffffffffffffffffffffffff16815260200190815260200160002081905550505b600073ffffffffffffffffffffffffffffffffffffffff168273ffffffffffffffffffffffffffffffffffffffff16036110e65780600260008282540392505081905550611133565b806000808473ffffffffffffffffffffffffffffffffffffffff1673ffffffffffffffffffffffffffffffffffffffff168152602001908152602001600020600082825401925050819055505b8173ffffffffffffffffffffffffffffffffffffffff168373ffffffffffffffffffffffffffffffffffffffff167fddf252ad1be2c89b69c2b068fc378daa952ba7f163c4a11628f55a4df523b3ef8360405161119091906113c7565b60405180910390a3505050565b600080fd5b6000819050919050565b6111b5816111a2565b81146111c057600080fd5b50565b6000813590506111d2816111ac565b92915050565b6000602082840312156111ee576111ed61119d565b5b60006111fc848285016111c3565b91505092915050565b60008115159050919050565b61121a81611205565b82525050565b60006020820190506112356000830184611211565b92915050565b600081519050919050565b600082825260208201905092915050565b60005b8381101561127557808201518184015260208101905061125a565b60008484015250505050565b6000601f19601f8301169050919050565b600061129d8261123b565b6112a78185611246565b93506112b7818560208601611257565b6112c081611281565b840191505092915050565b600060208201905081810360008301526112e58184611292565b905092915050565b600073ffffffffffffffffffffffffffffffffffffffff82169050919050565b6000611318826112ed565b9050919050565b6113288161130d565b811461133357600080fd5b50565b6000813590506113458161131f565b92915050565b600080604083850312156113625761136161119d565b5b600061137085828601611336565b9250506020611381858286016111c3565b9150509250929050565b6000602082840312156113a1576113a061119d565b5b60006113af84828501611336565b91505092915050565b6113c1816111a2565b82525050565b60006020820190506113dc60008301846113b8565b92915050565b6000806000606084860312156113fb576113fa61119d565b5b600061140986828701611336565b935050602061141a86828701611336565b925050604061142b868287016111c3565b9150509250925092565b600060ff82169050919050565b61144b81611435565b82525050565b60006020820190506114666000830184611442565b92915050565b600081519050919050565b600082825260208201905092915050565b6000819050602082019050919050565b6114a18161130d565b82525050565b60006114b38383611498565b60208301905092915050565b6000602082019050919050565b60006114d78261146c565b6114e18185611477565b93506114ec83611488565b8060005b8381101561151d57815161150488826114a7565b975061150f836114bf565b9250506001810190506114f0565b5085935050505092915050565b6000602082019050818103600083015261154481846114cc565b905092915050565b600081519050919050565b600082825260208201905092915050565b6000819050602082019050919050565b611581816111a2565b82525050565b60006115938383611578565b60208301905092915050565b6000602082019050919050565b60006115b78261154c565b6115c18185611557565b93506115cc83611568565b8060005b838110156115fd5781516115e48882611587565b97506115ef8361159f565b9250506001810190506115d0565b5085935050505092915050565b6000602082019050818103600083015261162481846115ac565b905092915050565b600080604083850312156116435761164261119d565b5b600061165185828601611336565b925050602061166285828601611336565b9150509250929050565b7f596f75206861766520616c726561647920766f7465642e000000000000000000600082015250565b60006116a2601783611246565b91506116ad8261166c565b602082019050919050565b600060208201905081810360008301526116d181611695565b9050919050565b7f4e487b7100000000000000000000000000000000000000000000000000000000600052603260045260246000fd5b7f4e487b7100000000000000000000000000000000000000000000000000000000600052602260045260246000fd5b6000600282049050600182168061174e57607f821691505b60208210810361176157611760611707565b5b50919050565b7f4f6e6c79206f776e65722063616e207461726e7366657220746f6b656e73207460008201527f6f20656c696769626c6520766f746572732e0000000000000000000000000000602082015250565b60006117c3603283611246565b91506117ce82611767565b604082019050919050565b600060208201905081810360008301526117f2816117b6565b9050919050565b7f5468697320766f746572206861766520616c726561647920766f7465642e0000600082015250565b600061182f601e83611246565b915061183a826117f9565b602082019050919050565b6000602082019050818103600083015261185e81611822565b9050919050565b7f5468697320766f74657220616c72656164792068617320766f74696e6720726960008201527f676874732e000000000000000000000000000000000000000000000000000000602082015250565b60006118c1602583611246565b91506118cc82611865565b604082019050919050565b600060208201905081810360008301526118f0816118b4565b9050919050565b7f566f74696e6720686173206e6f742073746172746564207965742e0000000000600082015250565b600061192d601b83611246565b9150611938826118f7565b602082019050919050565b6000602082019050818103600083015261195c81611920565b9050919050565b7f4e487b7100000000000000000000000000000000000000000000000000000000600052601160045260246000fd5b600061199d826111a2565b91506119a8836111a2565b92508282039050818111156119c0576119bf611963565b5b92915050565b6119cf8161130d565b82525050565b60006060820190506119ea60008301866119c6565b6119f760208301856113b8565b611a0460408301846113b8565b949350505050565b6000602082019050611a2160008301846119c6565b92915050565b6000611a32826111a2565b9150611a3d836111a2565b9250828201905080821115611a5557611a54611963565b5b9291505056fea26469706673582212208861a81c3bae36d48a040c89db3b11b38a81cbff525afd991ec6c971e7f0da5b64736f6c63430008180033",
  "linkReferences": {},
  "deployedLinkReferences": {}
}